{
  "_format": "hh-sol-artifact-1",
  "contractName": "UserRegistry",
  "sourceName": "contracts/UserRegistry.sol",
  "abi": [
    {
      "anonymous": false,
      "inputs": [
        {
          "indexed": true,
          "internalType": "address",
          "name": "user",
          "type": "address"
        },
        {
          "indexed": false,
          "internalType": "string",
          "name": "message",
          "type": "string"
        }
      ],
      "name": "MessageUpdated",
      "type": "event"
    },
    {
      "anonymous": false,
      "inputs": [
        {
          "indexed": true,
          "internalType": "address",
          "name": "userAddress",
          "type": "address"
        },
        {
          "indexed": false,
          "internalType": "string",
          "name": "username",
          "type": "string"
        }
      ],
      "name": "UserRegistered",
      "type": "event"
    },
    {
      "anonymous": false,
      "inputs": [
        {
          "indexed": true,
          "internalType": "address",
          "name": "userAddress",
          "type": "address"
        },
        {
          "indexed": false,
          "internalType": "string",
          "name": "username",
          "type": "string"
        }
      ],
      "name": "UserUpdated",
      "type": "event"
    },
    {
      "anonymous": false,
      "inputs": [
        {
          "indexed": true,
          "internalType": "address",
          "name": "userAddress",
          "type": "address"
        }
      ],
      "name": "UserVerified",
      "type": "event"
    },
    {
      "inputs": [
        {
          "internalType": "address",
          "name": "_userAddress",
          "type": "address"
        }
      ],
      "name": "getMessage",
      "outputs": [
        {
          "internalType": "string",
          "name": "",
          "type": "string"
        }
      ],
      "stateMutability": "view",
      "type": "function"
    },
    {
      "inputs": [],
      "name": "getTotalUsers",
      "outputs": [
        {
          "internalType": "uint256",
          "name": "",
          "type": "uint256"
        }
      ],
      "stateMutability": "view",
      "type": "function"
    },
    {
      "inputs": [
        {
          "internalType": "address",
          "name": "_userAddress",
          "type": "address"
        }
      ],
      "name": "getUser",
      "outputs": [
        {
          "components": [
            {
              "internalType": "address",
              "name": "walletAddress",
              "type": "address"
            },
            {
              "internalType": "string",
              "name": "username",
              "type": "string"
            },
            {
              "internalType": "bool",
              "name": "isVerified",
              "type": "bool"
            },
            {
              "internalType": "uint256",
              "name": "createdAt",
              "type": "uint256"
            },
            {
              "internalType": "uint256",
              "name": "lastActive",
              "type": "uint256"
            }
          ],
          "internalType": "struct UserRegistry.User",
          "name": "",
          "type": "tuple"
        }
      ],
      "stateMutability": "view",
      "type": "function"
    },
    {
      "inputs": [
        {
          "internalType": "string",
          "name": "_username",
          "type": "string"
        }
      ],
      "name": "getUserByUsername",
      "outputs": [
        {
          "components": [
            {
              "internalType": "address",
              "name": "walletAddress",
              "type": "address"
            },
            {
              "internalType": "string",
              "name": "username",
              "type": "string"
            },
            {
              "internalType": "bool",
              "name": "isVerified",
              "type": "bool"
            },
            {
              "internalType": "uint256",
              "name": "createdAt",
              "type": "uint256"
            },
            {
              "internalType": "uint256",
              "name": "lastActive",
              "type": "uint256"
            }
          ],
          "internalType": "struct UserRegistry.User",
          "name": "",
          "type": "tuple"
        }
      ],
      "stateMutability": "view",
      "type": "function"
    },
    {
      "inputs": [
        {
          "internalType": "address",
          "name": "_userAddress",
          "type": "address"
        }
      ],
      "name": "isUserRegistered",
      "outputs": [
        {
          "internalType": "bool",
          "name": "",
          "type": "bool"
        }
      ],
      "stateMutability": "view",
      "type": "function"
    },
    {
      "inputs": [
        {
          "internalType": "string",
          "name": "_username",
          "type": "string"
        }
      ],
      "name": "registerUser",
      "outputs": [],
      "stateMutability": "nonpayable",
      "type": "function"
    },
    {
      "inputs": [
        {
          "internalType": "string",
          "name": "_message",
          "type": "string"
        }
      ],
      "name": "storeMessage",
      "outputs": [],
      "stateMutability": "nonpayable",
      "type": "function"
    },
    {
      "inputs": [
        {
          "internalType": "string",
          "name": "_username",
          "type": "string"
        }
      ],
      "name": "updateUser",
      "outputs": [],
      "stateMutability": "nonpayable",
      "type": "function"
    },
    {
      "inputs": [
        {
          "internalType": "uint256",
          "name": "",
          "type": "uint256"
        }
      ],
      "name": "userAddresses",
      "outputs": [
        {
          "internalType": "address",
          "name": "",
          "type": "address"
        }
      ],
      "stateMutability": "view",
      "type": "function"
    },
    {
      "inputs": [
        {
          "internalType": "address",
          "name": "",
          "type": "address"
        }
      ],
      "name": "userMessages",
      "outputs": [
        {
          "internalType": "string",
          "name": "",
          "type": "string"
        }
      ],
      "stateMutability": "view",
      "type": "function"
    },
    {
      "inputs": [
        {
          "internalType": "string",
          "name": "",
          "type": "string"
        }
      ],
      "name": "usernameToAddress",
      "outputs": [
        {
          "internalType": "address",
          "name": "",
          "type": "address"
        }
      ],
      "stateMutability": "view",
      "type": "function"
    },
    {
      "inputs": [
        {
          "internalType": "address",
          "name": "",
          "type": "address"
        }
      ],
      "name": "users",
      "outputs": [
        {
          "internalType": "address",
          "name": "walletAddress",
          "type": "address"
        },
        {
          "internalType": "string",
          "name": "username",
          "type": "string"
        },
        {
          "internalType": "bool",
          "name": "isVerified",
          "type": "bool"
        },
        {
          "internalType": "uint256",
          "name": "createdAt",
          "type": "uint256"
        },
        {
          "internalType": "uint256",
          "name": "lastActive",
          "type": "uint256"
        }
      ],
      "stateMutability": "view",
      "type": "function"
    },
    {
      "inputs": [
        {
          "internalType": "address",
          "name": "_userAddress",
          "type": "address"
        }
      ],
      "name": "verifyUser",
      "outputs": [],
      "stateMutability": "nonpayable",
      "type": "function"
    }
  ],
  "bytecode": "0x608060405234801561001057600080fd5b506111b3806100206000396000f3fe608060405234801561001057600080fd5b50600436106100cf5760003560e01c80636f77926b1161008c5780639f42af63116100665780639f42af63146101e1578063a87430ba146101f4578063d4e36ba714610218578063f825f1431461022b57600080fd5b80636f77926b1461019d578063704f1b94146101bd5780639be572f6146101d057600080fd5b80630b4f12f6146100d4578063163f7522146100e95780634d8131201461012c578063502c9bd51461013f57806355448fe11461016a5780636cd947ee1461018a575b600080fd5b6100e76100e2366004610d7d565b61025f565b005b6101176100f7366004610e2e565b6001600160a01b0390811660009081526020819052604090205416151590565b60405190151581526020015b60405180910390f35b6100e761013a366004610e2e565b6104db565b61015261014d366004610e5e565b610561565b6040516001600160a01b039091168152602001610123565b61017d610178366004610e2e565b61058b565b6040516101239190610ec7565b61017d610198366004610e2e565b610637565b6101b06101ab366004610e2e565b6106d1565b6040516101239190610eda565b6100e76101cb366004610d7d565b6107c6565b600254604051908152602001610123565b6101b06101ef366004610d7d565b610a7d565b610207610202366004610e2e565b610bde565b604051610123959493929190610f34565b6100e7610226366004610d7d565b610ca5565b610152610239366004610d7d565b80516020818301810180516001825292820191909301209152546001600160a01b031681565b336000908152602081905260409020546001600160a01b031661029d5760405162461bcd60e51b815260040161029490610f75565b60405180910390fd5b60006001600160a01b03166001826040516102b89190610fa2565b908152604051908190036020019020546001600160a01b0316148061030d5750336001600160a01b03166001826040516102f29190610fa2565b908152604051908190036020019020546001600160a01b0316145b6103525760405162461bcd60e51b81526020600482015260166024820152752ab9b2b93730b6b29030b63932b0b23c903a30b5b2b760511b6044820152606401610294565b6003815110156103995760405162461bcd60e51b8152602060048201526012602482015271155cd95c9b985b59481d1bdbc81cda1bdc9d60721b6044820152606401610294565b6020815111156103df5760405162461bcd60e51b8152602060048201526011602482015270557365726e616d6520746f6f206c6f6e6760781b6044820152606401610294565b3360009081526020819052604080822090516001916104019190830190610ff8565b908152604080516020928190038301902080546001600160a01b0319166001600160a01b039490941693909317909255336000908152908190522060010161044982826110bd565b5033600081815260208190526040908190204260049091015551600190610471908490610fa2565b90815260405190819003602001812080546001600160a01b03939093166001600160a01b03199093169290921790915533907fd6136f3cad7c60bfc24bbf1548f39f766ca8bce104bf9adde3deb6237dec51df906104d0908490610ec7565b60405180910390a250565b6001600160a01b03818116600090815260208190526040902054166105125760405162461bcd60e51b815260040161029490610f75565b6001600160a01b038116600081815260208190526040808220600201805460ff19166001179055517fa6625d2d26e786e2f473111bea4b2fcdbbf1863d883a2359989ce3a103d2972a9190a250565b6002818154811061057157600080fd5b6000918252602090912001546001600160a01b0316905081565b6001600160a01b03811660009081526003602052604090208054606091906105b290610fbe565b80601f01602080910402602001604051908101604052809291908181526020018280546105de90610fbe565b801561062b5780601f106106005761010080835404028352916020019161062b565b820191906000526020600020905b81548152906001019060200180831161060e57829003601f168201915b50505050509050919050565b6003602052600090815260409020805461065090610fbe565b80601f016020809104026020016040519081016040528092919081815260200182805461067c90610fbe565b80156106c95780601f1061069e576101008083540402835291602001916106c9565b820191906000526020600020905b8154815290600101906020018083116106ac57829003601f168201915b505050505081565b6106d9610d2d565b6001600160a01b0380831660009081526020818152604091829020825160a08101909352805490931682526001830180549293929184019161071a90610fbe565b80601f016020809104026020016040519081016040528092919081815260200182805461074690610fbe565b80156107935780601f1061076857610100808354040283529160200191610793565b820191906000526020600020905b81548152906001019060200180831161077657829003601f168201915b5050509183525050600282015460ff16151560208201526003820154604082015260049091015460609091015292915050565b336000908152602081905260409020546001600160a01b03161561082c5760405162461bcd60e51b815260206004820152601760248201527f5573657220616c726561647920726567697374657265640000000000000000006044820152606401610294565b60006001600160a01b03166001826040516108479190610fa2565b908152604051908190036020019020546001600160a01b0316146108a65760405162461bcd60e51b81526020600482015260166024820152752ab9b2b93730b6b29030b63932b0b23c903a30b5b2b760511b6044820152606401610294565b6003815110156108ed5760405162461bcd60e51b8152602060048201526012602482015271155cd95c9b985b59481d1bdbc81cda1bdc9d60721b6044820152606401610294565b6020815111156109335760405162461bcd60e51b8152602060048201526011602482015270557365726e616d6520746f6f206c6f6e6760781b6044820152606401610294565b6040805160a08101825233808252602080830185815260008486018190524260608601819052608086015292835290829052929020815181546001600160a01b0319166001600160a01b03909116178155915190918291600182019061099990826110bd565b5060408281015160028301805460ff1916911515919091179055606083015160038301556080909201516004909101555133906001906109da908590610fa2565b90815260405190819003602001812080546001600160a01b03939093166001600160a01b0319938416179055600280546001810182556000919091527f405787fa12a823e0f2b7631cc41b3ba8828b3321ca811111fa75cd3aa3bb5ace018054909216339081179092557f48cac28ad4dc618e15f4c2dd5e97751182f166de97b25618318b2112aa951a2f90610a71908590610ec7565b60405180910390a25050565b610a85610d2d565b6000600183604051610a979190610fa2565b908152604051908190036020019020546001600160a01b0316905080610af05760405162461bcd60e51b815260206004820152600e60248201526d155cd95c881b9bdd08199bdd5b9960921b6044820152606401610294565b6001600160a01b0380821660009081526020818152604091829020825160a081019093528054909316825260018301805492939291840191610b3190610fbe565b80601f0160208091040260200160405190810160405280929190818152602001828054610b5d90610fbe565b8015610baa5780601f10610b7f57610100808354040283529160200191610baa565b820191906000526020600020905b815481529060010190602001808311610b8d57829003601f168201915b5050509183525050600282015460ff1615156020820152600382015460408201526004909101546060909101529392505050565b600060208190529081526040902080546001820180546001600160a01b039092169291610c0a90610fbe565b80601f0160208091040260200160405190810160405280929190818152602001828054610c3690610fbe565b8015610c835780601f10610c5857610100808354040283529160200191610c83565b820191906000526020600020905b815481529060010190602001808311610c6657829003601f168201915b5050505060028301546003840154600490940154929360ff9091169290915085565b336000908152602081905260409020546001600160a01b0316610cda5760405162461bcd60e51b815260040161029490610f75565b336000908152600360205260409020610cf382826110bd565b50336001600160a01b03167f3f784155aa459466ce143eb76c376834c30b26979da03bd4be74cd146c4bb1c3826040516104d09190610ec7565b6040518060a0016040528060006001600160a01b031681526020016060815260200160001515815260200160008152602001600081525090565b634e487b7160e01b600052604160045260246000fd5b600060208284031215610d8f57600080fd5b813567ffffffffffffffff80821115610da757600080fd5b818401915084601f830112610dbb57600080fd5b813581811115610dcd57610dcd610d67565b604051601f8201601f19908116603f01168101908382118183101715610df557610df5610d67565b81604052828152876020848701011115610e0e57600080fd5b826020860160208301376000928101602001929092525095945050505050565b600060208284031215610e4057600080fd5b81356001600160a01b0381168114610e5757600080fd5b9392505050565b600060208284031215610e7057600080fd5b5035919050565b60005b83811015610e92578181015183820152602001610e7a565b50506000910152565b60008151808452610eb3816020860160208601610e77565b601f01601f19169290920160200192915050565b602081526000610e576020830184610e9b565b602080825282516001600160a01b03168282015282015160a06040830152600090610f0860c0840182610e9b565b905060408401511515606084015260608401516080840152608084015160a08401528091505092915050565b6001600160a01b038616815260a060208201819052600090610f5890830187610e9b565b941515604083015250606081019290925260809091015292915050565b602080825260139082015272155cd95c881b9bdd081c9959da5cdd195c9959606a1b604082015260600190565b60008251610fb4818460208701610e77565b9190910192915050565b600181811c90821680610fd257607f821691505b602082108103610ff257634e487b7160e01b600052602260045260246000fd5b50919050565b600080835461100681610fbe565b6001828116801561101e576001811461103357611062565b60ff1984168752821515830287019450611062565b8760005260208060002060005b858110156110595781548a820152908401908201611040565b50505082870194505b50929695505050505050565b601f8211156110b857600081815260208120601f850160051c810160208610156110955750805b601f850160051c820191505b818110156110b4578281556001016110a1565b5050505b505050565b815167ffffffffffffffff8111156110d7576110d7610d67565b6110eb816110e58454610fbe565b8461106e565b602080601f83116001811461112057600084156111085750858301515b600019600386901b1c1916600185901b1785556110b4565b600085815260208120601f198616915b8281101561114f57888601518255948401946001909101908401611130565b508582101561116d5787850151600019600388901b60f8161c191681555b5050505050600190811b0190555056fea2646970667358221220fe32da063cf8063a4bb3aa4f34ff369df0b5ef232fb7dfbaaca236178bb9395b64736f6c63430008140033",
  "linkReferences": {},
  "deployedLinkReferences": {}
}